:020000040800F2
:10000000182B0020010100087D180008A512000827
:10001000B91500088F0100083D1E0008000000000F
:10002000000000000000000000000000491A000865
:10003000BD010008000000007F1800084B1A0008EE
:100040001B0100081B0100081B0100081B01000820
:100050001B0100081B0100081B0100081B01000810
:100060001B0100081B0100081B0100081B01000800
:100070001B0100081B0100081B0100081B010008F0
:100080001B0100081B0100081B0100081B010008E0
:100090001B0100081B0100081B010008D901000812
:1000A0001B0100081B0100081B0100081B010008C0
:1000B0001B010008D91A00081B0100081B010008D9
:1000C0001B0100081B0100081B0100081B010008A0
:1000D0001B010008391E00081B0100081B01000855
:1000E0001B0100081B0100081B010008DFF80CD0F1
:1000F00000F032F80048004709210008182B0020C2
:100100000648804706480047FEE7FEE7FEE7FEE7B1
:10011000FEE7FEE7FEE7FEE7FEE7FEE7911A0008CE
:10012000ED000008D2B201E000F8012B491EFBD21D
:1001300070470022F6E710B513460A4604461946F2
:10014000FFF7F0FF204610BD421C10F8011B0029EC
:10015000FBD1801A70470000064C074D06E0E068AE
:1001600040F0010394E8070098471034AC42F6D3FE
:10017000FFF7C0FFBC210008DC21000841F28832F3
:10018000D10610B1CA62C86A400848637047FEE7EA
:10019000A0F16101192901D82038C0B270470000D0
:1001A00010B56E210348FFF7C4FF03490020087013
:1001B00010BD0000C81A0020000000207047000099
:1001C000044A03492E2012788854024801F096BF51
:1001D000C81A002000000020402000F049B87047F5
:1001E0002DE9F0410A4D632028604FF4FA7001F0C8
:1001F0002DFB6324012704E02C600A2001F026FB7C
:100200003446E61BF8D500202860BDE8F0810000E8
:10021000402C014070B50446402820D1142001F044
:1002200015FB40210F4800F01FF9C0B90E4D012009
:1002300028706878272802D301F002FE06E0132810
:1002400002D301F031F801E001F0B7F90020687045
:100250000146012001F048F80120FFF78FFF034815
:10026000046070BD0008014020000020140401401B
:10027000044910B50A68024202D00860FFF7CAFFBD
:1002800010BD0000140401402DE9F84FDFF8B891CB
:10029000002409F1040A0AF1040B23460F270BF18D
:1002A000040EC9E00125A5402A40AA427DD1674E2F
:1002B000D1F804C0ACEB0608B44532D014DCBCF174
:1002C000030F3AD009DCBCF1000F2AD0BCF1010FBA
:1002D0001CD0BCF1020F31D11DE0BCF1110F17D0C1
:1002E000BCF1120F2AD119E0B8F5881F19D006DC2D
:1002F000B8F5803F15D0B8F5801F1FD111E0B8F5D3
:10030000001F0ED0B8F5041F18D10AE0CB6815E025
:10031000CB681B1D12E0CB6808330FE0CB680C33B1
:100320000CE08B682BB1012B4FF0080303D0456123
:1003300004E0042302E0056100E00023FF2A01D865
:10034000064601E000F104064FEA840501D9A5F153
:100350002005D6F8008007FA05FC28EA0C0803FA05
:1003600005F548EA0508C6F800804D68ED0062D53D
:10037000374DAE6946F00106AE61AD6924F0030663
:1003800005F001050095334D06EB050CDCF808502F
:10039000A607360F07FA06F825EA0805DFF8B88041
:1003A000404503D14FF0000817E044E0DFF8AC808F
:1003B000404502D14FF001080FE0DFF8A48040452E
:1003C00002D14FF0020808E0DFF89880404502D1E2
:1003D0004FF0030801E04FF0040808FA06F848EA75
:1003E0000508CCF808804D68D9F80060ED034D464B
:1003F00001D5164300E096432E604D68DAF80060A0
:10040000AD03554601D5164300E096432E604D6876
:10041000DBF80060ED025D4601D5164300E096432F
:100420002E604D68DEF80060AD02754601D51643BA
:1004300000E096432E60641C0D682A46E5407FF478
:1004400031AFBDE8F88F000000040140000011103A
:10045000001002400000014000080140000C014073
:1004600000100140001401408068084000D00120C5
:100470007047000001488068704700005400002069
:10048000024881680278114481607047540000205E
:10049000074810B5016841F010010160032000F029
:1004A00075F8002000F006F800F024F8002010BDD8
:1004B0000020024070B50D4D04464FF47A71287843
:1004C000B1FBF0F00A490968B1FBF0F000F0ECFA7A
:1004D00048B9102C07D200222146501E00F036F8F1
:1004E00000206C6070BD012070BD00005400002031
:1004F000600000200C4808B5816941F0010181616C
:10050000816901F001010091C16941F08051C1612F
:10051000C06900F0805000900448416821F0E0611B
:1005200041F00071416008BD001002400000014030
:10053000002809DB00F01F020121914040098000E2
:1005400000F1E020C0F8001170470000F0B40E4B3D
:100550001B680C46C3F30223C3F10705042D00D921
:100560000425191D072901D2002300E0DB1E012606
:1005700006FA05F1491E214099409E40761E16401C
:100580003143F0BC01F096BC0CED00E0064900F0F0
:10059000070208684FF6FF03184040EA0220034AAA
:1005A00010430860704700000CED00E00000FA0501
:1005B0002DE9F0470F46050061D0434E306800F04A
:1005C0000700B84209D2306820F007003843306095
:1005D000306800F00700B84251D128683B4C8107D1
:1005E00012D5400703D5606840F4E0606060287869
:1005F000000703D5606840F4605060606068A968D7
:1006000020F0F000084360602878C00728D06868B0
:10061000012810D02168022810D0890700292EDA7D
:10062000616821F0030101436160FFF723FF804609
:1006300041F288390DE021688903EFE78901EDE790
:10064000FFF718FFA0EB0801494502D90320BDE8D8
:10065000F0876068696800F00C00B0EB810FEFD1A3
:10066000306800F00700B8420BD9306820F007006E
:1006700038433060306800F00700B84201D00120F4
:10068000E5E72878400705D56068E96820F4E06070
:10069000084360602878000706D56068296920F45F
:1006A000605040EAC100606000F038F86168084AB4
:1006B000C1F30311515CC840064908600648006850
:1006C000FFF7F8FE0020C2E70020024000100240C1
:1006D000A2210008600000205800002004480549BD
:1006E00000684968044AC1F30221515CC840704760
:1006F0006000002000100240B221000804480549B3
:1007000000684968044AC1F3C221515CC84070477F
:100710006000002000100240B221000812A185B044
:100720000FC98DE80F0014A0144A006804905168A6
:10073000134801F00C03042B10D0082B0ED1C1F389
:100740008343C9031DF803000AD5516804AAC1F305
:100750004041515C0A4A5043B0FBF1F005B070478C
:1007600008494843FAE700000203040506070809A0
:100770000A0B0C0D0E0F10100102000000100240B9
:1007800000127A0000093D002DE9F84F040070D0F6
:100790002078C04DC00749D06868C0F381000128A7
:1007A00007D06868C0F38100022809D16868C003D7
:1007B00006D52868800339D560680028E7D035E081
:1007C0006068B0F5803F0BD010B1B0F5A02F11D00C
:1007D000286820F480302860286820F4802002E017
:1007E000286840F480302860606890B1FFF742FECE
:1007F00006460AE0286840F480202860F0E700BF41
:10080000FFF738FE801B642873D828688003F7D56B
:100810000CE0FFF72FFE064605E000BFFFF72AFEBB
:10082000801B6428F0D828688003F7D420789A4E7B
:1008300080074FF001094FF0000839D5686810F0C3
:100840000C0F07D06868C0F38100022809D16868DE
:10085000C00306D42868800714D52069012808D170
:1008600010E02069B0B1C6F80090FFF703FE07461C
:1008700005E00AE1FFF7FEFDC01B0228C4D8286886
:100880008007F7D52868616920F0F80040EAC100C8
:1008900028600DE0C6F80080FFF7ECFD074604E095
:1008A000FFF7E8FDC01B022823D828688007F7D48B
:1008B000207800072CD57948A169D9B1C0F80090FB
:1008C000FFF7D8FD074604E0FFF7D4FDC01B022860
:1008D0000FD8686A8007F7D571484FF4FA5100685D
:1008E000B0FBF1F0009000BF0098411E0091FAD2D9
:1008F0000EE080E0C0F80080FFF7BCFD074604E092
:10090000FFF7B8FDC01B022875D8686A8007F7D4C6
:100910002078400760D5E8690027C00008D4E8695E
:1009200040F08050E861E869012700F080500090B5
:100930005C480168C90513D40168834641F480719D
:100940000160FFF797FD824606E000BFFFF792FDCA
:10095000A0EB0A0064284ED8DBF80000C005F5D5EE
:10096000E06801280AD008B1052813D0286A20F0D1
:1009700001002862286A20F0040002E0286A40F0A2
:1009800001002862E06841F2883B98B1FFF772FDF0
:1009900082460BE0286A40F004002862EEE700BFC0
:1009A000FFF768FDA0EB0A0159455AD8286A80076D
:1009B000F6D50CE0FFF75EFD824605E0FFF75AFD35
:1009C000A0EB0A0159454CD8286A8007F6D41FB11C
:1009D000E86920F08050E861E06988B36968C1F394
:1009E0008101022944D00228C6F8608004D0FFF7B4
:1009F00041FD044638E034E0FFF73CFD074604E0E3
:100A0000FFF738FDC01B02282BD828688001F7D4D7
:100A1000206AB0F5803F05D16868A16820F40030F5
:100A200008436860D4E908010843696821F4741137
:100A300008436860C6F86090FFF71CFD044606E0B6
:100A400025E000BFFFF716FD001B022809D8286823
:100A50008001F7D51BE000BFFFF70CFD001B02284B
:100A600002D90320BDE8F88F28688001F4D40EE095
:100A70000128F7D06868226A00F48031914204D1DD
:100A8000616A00F47010884201D00120EAE700207A
:100A9000E8E70000001002400000424280044242A9
:100AA000600000200070004010B5401EB0F1807F53
:100AB00001D3012010BD4FF0E02460610F216017C9
:100AC00001F0F8F90020A06107202061002010BD8E
:100AD0007047704710B590F83C20012A22D00122BF
:100AE00080F83C20CA688C6822F4407222434C682B
:100AF00022F4806222430C6822F4006222430C69D3
:100B000022F4805222434C6922F400522243C969E4
:100B1000002322F480420A4301684A6480F83C3092
:100B2000002010BD022010BD70B590F83C20012AB5
:100B300019D0012400F83C4F0222427050F83C3C8E
:100B40005A689D6822F070060A684968324325F0A9
:100B5000800529435A6050F83C2C91604470002174
:100B60000170084670BD022070BD10B5040003D0AE
:100B700094F83D0010B107E0012010BD002084F87A
:100B80003C00204600F00CF8022084F83D00211DB6
:100B9000206800F0A7FF012084F83D00002010BD70
:100BA00008B5174A01681748914207D1816941F495
:100BB00000618161806900F400601EE0B1F1804F46
:100BC00014D0114A914219D1C16941F00201C161A9
:100BD000C069002200F00200009001211D20FFF7F3
:100BE000B5FCBDE808401D20FFF7A2BCC16941F07B
:100BF0000101C161C06900F00100009008BD000062
:100C0000002C014000100240000400400168CA6846
:100C100042F00102CA600068816801F007010629FC
:100C200003D0016841F0010101600020704770B5F8
:100C3000044690F83C00012817D0012584F83C5068
:100C4000022084F83D002068826822F0770222F4B6
:100C50007F4282600868502830D00DDC20284DD0BB
:100C600005DC98B310283BD148E0022070BD302845
:100C700044D0402834D139E0602828D0702806D0EC
:100C8000B0F5805F2CD0B0F5005F29D10AE0CB68C9
:100C9000D1E90121206800F068FF2068816841F0F7
:100CA000770109E0CB68D1E90121206800F05DFF00
:100CB0002068816841F48041816011E0CA68496818
:100CC000206801F007F85021206807E016E0CA68A4
:100CD0004968206801F00FF86021206800F04FFF9C
:100CE00084F83D50002084F83C0070BDCA68496813
:100CF000206800F0EFFF40212068EFE722680146FE
:100D00001046EBE7704770B50446006801694FF084
:100D10000005C943890715D4C168C943890711D49F
:100D2000E91E016101202077206880698007204644
:100D300002D0FFF7E7FF04E000F0CCF8204600F017
:100D40004EF9257720680169C943490717D4C1685E
:100D5000C943490713D46FF00401016102202077D1
:100D60002068806910F4407F204602D0FFF7CAFF58
:100D700004E000F0AFF8204600F031F92577206854
:100D80000169C943090716D4C168C943090712D4C8
:100D90006FF008010161042020772068C069800796
:100DA000204602D0FFF7AEFF04E000F093F82046A3
:100DB00000F015F9257720680169C943C90617D4E1
:100DC000C168C943C90613D46FF01001016108203E
:100DD00020772068C06910F4407F204602D0FFF7DA
:100DE00091FF04E000F076F8204600F0F8F825774F
:100DF00020680169C943C90708D1C168C943C90747
:100E000004D1891E0161204600F006F920680169BD
:100E1000C943090609D4C168C943090605D46FF05E
:100E2000800101612046FFF753FE20680169C94334
:100E3000490609D4C168C943490605D46FF0400189
:100E40000161204600F02EF920680169C943890636
:100E50000BD4C168C943890607D46FF02001016132
:100E60002046BDE87040FFF734BE70BD10B586B0B7
:100E700000210091019102910391134C03681349E1
:100E800002221348A3420AD18B6943F004038B6109
:100E9000896901F0040104914FF460610BE0B3F142
:100EA000804F0ED18B6943F004038B61896901F097
:100EB000040104910121CDE9001269460392FFF774
:100EC000E3F906B010BD0000002C01400010024004
:100ED00000080140704770B5044690F83C000D468C
:100EE00001280DD0012684F83C60022084F83D00E2
:100EF00042B1042A18D0082A2AD00C2A4DD139E050
:100F0000022070BD206800F043FE2068816941F036
:100F1000080181612068816921F0040181612068F4
:100F200081692A69114311E0206800F059FE2068A8
:100F3000816941F4006181612068816921F48061E7
:100F40008161206881692A6941EA0221816124E086
:100F5000206800F071FE2068C16941F00801C1619C
:100F60002068C16921F00401C1612068C1692A6952
:100F7000114311E0206800F08BFE2068C16941F444
:100F80000061C1612068C16921F48061C16120688C
:100F9000C1692A6941EA0221C16184F83D600020EB
:100FA00084F83C0070BD10B5040003D094F83D00F7
:100FB00010B107E0012010BD002084F83C0020465D
:100FC00000F00CF8022084F83D00211D206800F09C
:100FD00089FD012084F83D00002010BD7047704756
:100FE00010B504460068012200F0B2FD09492068EE
:100FF000884203D1416C41F400414164206881681A
:1010000001F00701062903D0016841F001010160E8
:10101000002010BD002C014010B51E4801F038F82A
:1010200008B900F081FC40211B48FFF71DFA1B4C5A
:101030000028207806D030B36078132814D300F04D
:101040006BF915E030B11548401C01F057F800214C
:10105000012014E011493122BDE8104040F6FF7331
:10106000891C0F4800F0C1B8052801D3FFF7A8F884
:10107000002060702070FFF781F801210020BDE89A
:10108000104000F031B90548BDE81040401C01F0A7
:1010900035B8000024230020000801402000002073
:1010A00088010020704770B5040004D094F839001E
:1010B000002510B106E0012070BD84F838502046AC
:1010C00000F022F8242084F839002068C16821F457
:1010D0000051C160204600F021FE2068016921F422
:1010E000904101612068416921F02A014161206835
:1010F000C16841F40051C160E563202084F83900E3
:1011000084F83A00002070BD30B585B0002400940A
:1011100001940294039400681B49884232D11B4811
:10112000816941F480418161816901F480410491C8
:10113000816941F0080181618069154D00F0080066
:101140000490402000900220019003200390694603
:101150002846FFF799F88020CDE900046946284623
:101160000294FFF791F80B48416841F0E06141F0CB
:1011700004014160002211462520FFF7E7F92520F0
:10118000FFF7D6F905B030BD00380140001002402D
:10119000000C01400000014090F83A30202B22D191
:1011A000F9B1F2B190F83830012B1CD08162828500
:1011B000C2850021C163222280F83A2080F83810CD
:1011C0000168CA6842F48072CA6001684A6942F0E4
:1011D00001024A610068C16841F02001C16000203D
:1011E000704701207047022070472DE9F8430446FC
:1011F00090F839001F4616460D46202850D1A5B15B
:101200009EB194F8380001284AD0012084F83800B3
:101210004FF00008C4F83C80212084F83900FFF723
:1012200029F9A6848146E68426E00120BDE8F883FA
:10123000E08C401EE084A0684B46B0F5805F4FF024
:1012400000024FF080012046009703D000F0C2FD5D
:10125000E8B90DE000F0BEFDC8B928882168C0F3E8
:1012600008004860206908B16D1C05E0AD1C03E072
:10127000216815F8010B4860E08C0028D8D14B4656
:10128000002240212046009700F0A4FD08B1032071
:10129000CCE7202084F8390084F838800020C5E7A6
:1012A0000220C3E7FEE7000010B500F0BFFE0146D4
:1012B000FE2811D0FF2904D0BDE81040074800F0F7
:1012C00069BF40F6FF731E2205490648FFF78DFFF0
:1012D000BDE81040FEF784BF10BD0000201F0020B5
:1012E00001000020880100202DE9F041094D002770
:1012F00059B1632401262C60052000F0A7FAA41B35
:10130000A01BF8D52F60BDE8F0810128FAD1632039
:101310002860F8E7382C0140044A03495F2012781E
:101320008854024800F0EABEC81A002000000020DD
:1013300000B585B0002003901648816941F0200176
:101340008161816901F020010491816941F004010A
:101350008161816901F004010491816941F0080112
:1013600081618069694600F0080004904020009087
:1013700009480190012002900848FEF785FF0022ED
:1013800011461720FFF7E2F81720FFF7D1F805B054
:1013900000BD0000001002400000211000080140C4
:1013A00010B596B000240F941094119412941394D5
:1013B0001C2168461494FEF7BCFE202107A8FEF706
:1013C000B8FE30482E4901604F21C0E90114632165
:1013D000C0E9031444618461FFF7C7FB08B1FEF75D
:1013E000FEFE4FF480500F900FA92648FFF71FFC18
:1013F00008B1FEF7F4FE2348FFF7D5FD08B1FEF76C
:10140000EEFE139413A91F481494FFF78DFB08B147
:10141000FEF7E5FE6020CDE90004029403940494F5
:1014200005940422694617480694FFF754FD08B155
:10143000FEF7D5FE082269461248FFF74CFD08B1B9
:10144000FEF7CDFE0C2269460E48FFF744FD08B1B9
:10145000FEF7C5FE0794089409944FF400500A94CF
:10146000CDE90B4007A907480E94FFF733FB08B1FD
:10147000FEF7B5FE0348FFF7F9FC16B010BD0000FB
:10148000002C0140C800002010B58EB00024079445
:10149000089409940A940B941C2168460C94FEF756
:1014A00048FE1C484FF08041C0E900148460C460CD
:1014B00004618461FFF759FB08B1FEF790FE4FF419
:1014C0008050079007A91348FFF7B1FB08B1FEF75A
:1014D00086FE1048FFF767FD08B1FEF780FE0B940B
:1014E0000BA90C480C94FFF71FFB08B1FEF777FE21
:1014F0006020CDE900040294002269460548049466
:10150000FFF7E9FC08B1FEF76AFE0248FFF7AEFC00
:101510000EB010BD0801002010B586B00024174899
:101520000094019402940394049413490594016077
:1015300040F28F11C0E9011440F2E731C0E9031411
:101540008461FFF712FB08B1FEF749FE4FF48050AB
:10155000009069460948FFF76AFB08B1FEF73FFEB5
:10156000049404A905480594FFF7DEFA002801D089
:10157000FEF735FE06B010BD000400404801002013
:101580000C4810B50A4901604FF4E1314160002177
:1015900081600C22C160C0E904128161C161FFF762
:1015A00082FD002803D0BDE81040FEF718BE10BD34
:1015B0000038014088010020FEE7704770B59D4962
:1015C0004120062288719C484723482420F8822F16
:1015D000422281F8952095224280432281F8992069
:1015E00099228280442281F825202522C28045222A
:1015F0004A7001220281462281F8592059224281F3
:1016000081F829302923838181F855405524C481EC
:1016100049254D71052505824A2581F86A506A25BC
:1016200045824B2581F82650262585824C2581F858
:1016300065506525C5824D258D720A2505834E2589
:101640004D72092545834F2581F82A502A25858327
:10165000502501F8695F6925C583512581F83D5002
:10166000A6250584522501F8505C1925458453258B
:1016700001F8545C15258584542501F8675C022522
:10168000C58401F8534C16240485562401F8134CE4
:101690004485572401F84F4C1A248485582481F836
:1016A0002D40962420F82E4F81F831209A22428036
:1016B0005A2281F83C20A5228280302281F84122E2
:1016C00040F2AA2220F8502C312281F841214FF417
:1016D000D57220F84E2C322281F801214FF4B572D8
:1016E00020F84C2C332281F8F1204FF4AD7220F811
:1016F0004A2C342281F8ED204FF4AB7220F8482CAC
:10170000352281F8EC2040F2551220F8462C362282
:1017100081F8EC2140F2552220F8442C372281F840
:101720002C2240F2952220F8422C382281F83C22CB
:1017300040F2A52220F8402C392281F8402240F2C4
:10174000A92220F83E2C2E2281F8FD2540F2666267
:1017500020F8542C3A2281F82C2A40F6952220F8C1
:101760003C2C2C2281F8F12940F65A2220F8582CE2
:101770003B2281F8302940F6991220F83A2C3F227A
:1017800081F83C2540F2A55220F8322C3D2281F808
:10179000ED2140F2562220F8362C272281F84026EF
:1017A00040F2A96220F8622C2F2281F8F02140F249
:1017B000592220F8522C212281F8312940F69A1220
:1017C00020F86E2D2D2281F8ED2840F65612028366
:1017D0005F2281F83D2540F2A652A0F87C2022220B
:1017E00081F8F02540F259624280282281F80022D7
:1017F00040F26922C28181F83D3940F6A612028288
:101800000E4A242382F8963541F29652C280402235
:1018100081F8302640F29961C1876E210848FEF7B1
:1018200088FC084900200870BDE87040064800F0B8
:10183000D0BB0000C801002038190020C8110020CA
:10184000C81A002000000020201F002000EB4002EA
:101850000121C2EBC01000E0491CB1EBC00FFBD965
:1018600070470000034800684068C1B2024800F0B9
:1018700091BC00008801002024230020704770479D
:1018800010B5094809A100F001FB074812A1283052
:1018900000F0FCFABDE81040402240F6FF73024918
:1018A0001448FFF7A2BC0000640000202057656CBC
:1018B000636F6D6520746F2075736520746869733C
:1018C000204D6F72736520436F64652070726F6A7C
:1018D0006563740A000000004D6164652042792050
:1018E0005A68616E675750287A7A7A633138290AC4
:1018F00000000000880100202DE9F041094D00277B
:1019000059B1632401262C600520FFF79FFFA41B1B
:10191000A01BF8D52F60BDE8F0810128FAD1632023
:101920002860F8E73C2C01402DE9FE43364800F0E2
:10193000AFFB002811D14FF47A7540F6FF7632489C
:1019400000F0A6FB0028304809D000F042FB3346E7
:1019500010222EA13248FFF748FCBDE8FE8300F0BC
:10196000C9FB0446284800F00FFC2046FEF710FC97
:10197000014620280FD02B4830F8110098B3684654
:1019800000F02EFB6846FEF7DFFB07460024E84622
:101990004FF496791AE04FF4FA601AE018F8040050
:1019A0004FF000012E284FF0010015D0FFF7A4FFE3
:1019B0000120FEF7E3FB2846FFF748FF0020FEF773
:1019C000DDFB01210020FFF797FF641CBC42E5DB33
:1019D0002846FFF73BFFB2E7FFF78EFF0120FEF737
:1019E000CDFB4846E8E7FFE707480A460EA1143852
:1019F00000F04CFA04493346132214390848FFF723
:101A0000F4FBFEF7EDFBE3E7242300205472616E44
:101A1000736C6174696F6E20456E642E0000000067
:101A2000880100203819002043616E277420666900
:101A30006E6420256320696E2064696374696F6E2B
:101A400061727921000000007047FEF719BD10B5E2
:101A500090B028216846FEF76CFB14210AA8FEF717
:101A600068FB0220009001200490102000240590C3
:101A700007946846FEF788FE0F20CDE90A040C940F
:101A80000D9400210AA80E94FEF792FD10B010BD2F
:101A90000D48016841F00101016041680B4A1140A5
:101AA000416001680A4A11400160016821F4802107
:101AB0000160416821F4FE0141604FF41F01816023
:101AC0000449C00308607047001002400000FFF89E
:101AD000FFFFF6FE08ED00E00148FFF714B9000033
:101AE00048010020F0B50268164B174C174D4FF017
:101AF0008047984205D0B84203D0A04201D0A84206
:101B000003D122F070064A683243984205D0B842A9
:101B100003D0A04201D0A84203D122F44074CA6885
:101B200022434C6922F08002224302608A68C2622A
:101B30000A688262984201D1096901630121416109
:101B4000F0BD0000002C01400004004000080040EF
:101B500010B501F01F030121046A99408C4304620F
:101B6000016A9A401143016210BD10B5846842EACF
:101B7000032224F47F440A432243826010BD82681A
:101B800022F070020A4342F00701816070470000B2
:101B900030B5026A22F001020262026A4368846977
:101BA00024F073050C682C4322F002058A682A434E
:101BB0000A4DA8420BD122F00805CA6823F44073ED
:101BC0002A434D6922F004021D438B692B43436075
:101BD000846149684163026230BD0000002C01400D
:101BE00030B5026A22F010020262026A4368846918
:101BF0000D6824F4E64444EA05248D6822F02002AE
:101C000042EA05120B4DA8420ED1CD6822F08002A7
:101C100042EA05124D6923F4406343EA85038D6966
:101C200022F0400243EA850343608461496881638E
:101C3000026230BD002C014030B5026A22F480728D
:101C40000262036A4268C46923F4007324F07305D6
:101C50000C682C438D6843EA05230C4DA8420ED135
:101C6000CD6823F4006343EA05234D6922F4405212
:101C700042EA05128D6923F4806342EA051242604C
:101C8000C4614968C163036230BD0000002C01409B
:101C900030B5026A22F480520262046A4268C36963
:101CA0000D6823F4E64343EA05238D6824F40054C9
:101CB00044EA0534064DA84204D14D6922F480421D
:101CC00042EA85124260C36149680164046230BD22
:101CD000002C014010B5036A046A24F00104046278
:101CE000846924F0F00444EA021423F00A020A434F
:101CF0008461026210BD10B5036A23F01003036211
:101D00008369046A23F4704343EA023224F0A00397
:101D100043EA01118261016210BD00002DE9F0412A
:101D2000044600680169E26821F4405111430161F1
:101D30002169A0680843616908432168CA6841F2C3
:101D40000C639A430243CA6020684169A26921F486
:101D50004071114341611E49206864253226884242
:101D600002D1FEF7CBFC01E0FEF7B8FC00EBC001AE
:101D700001EB001160686FF018078000B1FBF0F212
:101D8000B2FBF5F2B1FBF0F37A4303EB8202B1FB55
:101D9000F0F306EB0212B2FBF5F2B3FBF5F302F03F
:101DA000F00202EB0312B1FBF0F3B1FBF0F0B0FB79
:101DB000F5F0784303EB800006EB0010B0FBF5F084
:101DC000216800F00F0010448860BDE8F081000039
:101DD000003801402DE9F041984617460E4604466A
:101DE000069D1DE0681C1BD02DB1FEF743FBA0EB48
:101DF0000800A84214D92068C16821F4D071C160DC
:101E00002068416921F001014161202084F83900F6
:101E100084F83A00002084F838000320BDE8F081FF
:101E20002068006836EA000004D00020B842D9D00B
:101E30000020F3E70120F9E7FFF714BDFEE70000FB
:101E400010B500F0F3F80146FE2817D0FF290AD09C
:101E50000B4800F09FF92021094800F09BF9BDE8EC
:101E6000104000F01DB940F6FF731E2205490648D8
:101E7000FFF7BBF9BDE81040FEF7B2B910BD000096
:101E8000201F002001000020880100200FB4084B13
:101E900010B504A902AA039800F02BF8044602A981
:101EA000002000F091F8204610BC5DF814FB000003
:101EB000C91F00080907090E002804DB00F1E02013
:101EC00080F80014704700F00F0000F1E02080F867
:101ED000141D704702E008C8121F08C1002AFAD179
:101EE00070477047002001E001C1121F002AFBD19A
:101EF00070472DE9F84F99469246884605460027D7
:101F000006E025280AD051464A4690476D1C7F1CA2
:101F100028780028F5D13846BDE8F88F002315F859
:101F2000011F18462E2915D115F8011F04232A294F
:101F30000DD06FF02F022978A1F13004092C09D8B7
:101F400000EB800002EB400008446D1CF3E758F8FA
:101F5000040B6D1C2A78002ADDD0632A07D0732A6F
:101F60000FD0104651464A4690477F1C2AE018F889
:101F7000042B8DF8002000218DF801106E46012100
:101F800003E058F8046B4FF0FF315A074FF000049C
:101F900001D409E0641C84420BDA8C42FADB325D26
:101FA000002AF7D105E0641C8C42FCDB305D002880
:101FB000F9D1274404E016F8010B51464A469047F0
:101FC000641EF8D26D1CA3E70A68531C0B601070E6
:101FD00070470021C0F8EC13C0F8E8137047000008
:101FE0007EB500220260104B4260028133F811106E
:101FF0002E256B465F260BE001F00304012C02D076
:10200000022C02D003E09D5400E09E54521C891023
:102010000029F1D105E0551A5C5C0544491C05F81E
:10202000014C9142F7DB7EBD38190020154810B5F0
:102030000178002421B1072906D9FEF7B1F81FE085
:10204000FEF7AEF8FE2010BD00200F4A0CE0135C36
:10205000A4002E2B02D05F2B03D004E084F00104F7
:1020600001E084F00204401C8842F0DBFEF798F89F
:1020700041F24460844203D80448005D0028E2D164
:10208000FF2010BD00000020C81A0020C801002059
:10209000D0E9FA10814201D1012070470020704739
:1020A00070B51148FFF7F4FF00281BD100240F4D35
:1020B00007E000BF00F01EF828550B48641C00F034
:1020C00063F80948FFF7E4FF00280748F2D0FFF75C
:1020D00080FFA2B2BDE8704040F6FF730349044898
:1020E000FFF783B870BD0000201F0020361B0020C2
:1020F00088010020D0F8E813405C7047017864291B
:1021000001D2491C01707047FEF7C2F9FFF79FFC2E
:10211000FFF70EF9FFF744F9FFF7B6F9FFF7FCF9FF
:10212000FFF72EFAFFF7ACFBFFF748FA1148FEF76E
:102130001CFD1148FEF719FD1048FEF767FD04214C
:102140000C48FEF74DFF08210A48FEF749FF04211D
:102150000848FEF745FF0C210648FEF741FF002125
:102160000548FEF73DFF082205490648FFF714F829
:10217000FEE70000C8000020080100204801002000
:102180005300002088010020D0F8E813491CC0F853
:10219000E8137047D0F8EC23531CC0F8EC3381549B
:1021A0007047000000000000000001020304060761
:1021B000080900000000010203040000DC210008FF
:1021C0000000002064000000D41E00084022000827
:1021D00064000020B42A0000E41E0008004F6F6F66
:1021E000707320696E76616C696420696E707574B5
:1021F000206D6F72736520636F6465000000457227
:10220000726F723A20666C61672076616C7565202A
:102210006973206E6F7420776F726B696E672061CF
:1022200073206578706563746174696F6E21000056
:102230000100000010000000000000000024F40075
:04000005080000ED02
:00000001FF
